:100000000C9428010C9459010C9459010C94590139
:100010000C9459010C9459010C9459010C945901F8
:100020000C9459010C9459010C9459010C945901E8
:100030000C9459010C9459010C9459010C945901D8
:100040000C9459010C9459010C9459010C945901C8
:100050000C9459010C9459010C9459010C94BC0353
:100060000C9459010C9430040C9406040C9459011E
:100070000C9459010C9459010C9459010C94590198
:100080000C9459010C9459010C9459010C94590188
:100090000C9459010C9459010C9459010C94590178
:1000A0000C9459010C9459010C9459010C94590168
:1000B0000C9459010C9459010C9459010C94590158
:1000C0000C9459010C9459010C9459010C94590148
:1000D0000C9459010C9459010C9459010C94590138
:1000E0000C9459010C946A020C94C5010C94900173
:1000F0000C9437060C940C020C94D3010C94390226
:100100000C94EF020C94D7010C94E1010C94A20220
:100110000C94BB010C94A2010C94AA010C94A601AE
:100120000C94C9010C94DD010C94CF010C948B014B
:100130000C945C020C94C1010C94B1010C94B701B5
:100140000C94AE010C94480200002100240027000A
:100150002A002D00300033000101000004010701D6
:100160000A0100002200250028002B002E0031008B
:10017000340002010000050108010B010505050519
:10018000070508080808020202020A0A080804040F
:10019000040401010101010101010303030303033D
:1001A0000303040707070C0C0C0C0C0C0C0C0202CC
:1001B000020206060606060606060B0B0B0B0B0BC9
:1001C0000B0B010210202008081020401020408056
:1001D000020102010804020101020408102040800B
:1001E0008040201008040201800402018040201099
:1001F00008040201080402010102040810204080E2
:10020000010204081020408000000A0B02090C0DB6
:100210000E080703040100000000000000000000B9
:1002200000000000000000000000000000000000CE
:10023000000000001211100000000000000000008B
:100240000000000000000000000000000000370671
:1002500011241FBECFEFD1E2DEBFCDBF00E00CBF47
:1002600012E0A0E0B2E0EEE5FDE000E00BBF02C06E
:1002700007900D92A237B107D9F723E0A2E7B2E0C9
:1002800001C01D92A634B207E1F711E0C8E2D1E047
:1002900000E006C021970109802FFE010E94A506FB
:1002A000C732D10780E00807A9F70E9466040C94C2
:1002B000AD060C940000282F30E0F901E85FFD4FF7
:1002C0009491F901EE53FE4F449124583E4FF901A9
:1002D0002491222309F435C0992311F191509231D0
:1002E000F8F4E92FF0E08827E758FE4F8F4F0C9481
:1002F000A506AA01AE018B01A201A6019001B101E0
:10030000B701BB01C101C501C901CF01D3019001F2
:10031000D701DD01E101809180008F77809380001B
:10032000E22FF0E0EE0FFF1FEE59FE4FA591B491C2
:100330008FB7F894EC91611148C040954E234C93CF
:100340008FBF0895809180008F7DE8CF80918000DD
:10035000877FE4CF84B58F7784BDE2CF84B58F7D6E
:10036000FBCF8091B0008F778093B000D9CF809180
:10037000B0008F7DF9CF809190008F7780939000AF
:10038000CFCF809190008F7DF9CF80919000877FB3
:10039000F5CF8091A0008F778093A000C1CF80918E
:1003A000A0008F7DF9CF8091A000877FF5CF80914D
:1003B00020018F7780932001B3CF809120018F7D22
:1003C000F9CF80912001877FF5CF4E2BB8CF3FB773
:1003D000F8948091A5029091A602A091A702B091F5
:1003E000A80226B5A89B05C02F3F19F00196A11DB4
:1003F000B11D3FBFBA2FA92F982F8827BC01CD016F
:10040000620F711D811D911D42E0660F771F881FCD
:10041000991F4A95D1F70895AF92BF92CF92DF927C
:10042000EF92FF920F931F93CF93DF936C017B01A9
:100430008B01040F151FEB015E01AE18BF08C0173A
:10044000D10759F06991D601ED91FC910190F081AD
:10045000E02DC6011995892B79F7C501DF91CF9160
:100460001F910F91FF90EF90DF90CF90BF90AF90D2
:100470000895FC01538D448D252F30E0842F90E0AA
:10048000821B930B541710F0CF960895019708958F
:10049000FC01918D828D981761F0A28DAE0FBF2F58
:1004A000B11D5D968C91928D9F5F9F73928F90E0AE
:1004B00008958FEF9FEF0895FC01918D828D98171D
:1004C00031F0828DE80FF11D858D90E008958FEF5A
:1004D0009FEF0895FC01918D228D892F90E0805C23
:1004E0009F4F821B91098F739927089589EA92E0A3
:1004F0000E946A0221E0892B09F420E0822F0895EE
:10050000FC01A48DA80FB92FB11DA35ABF4F2C9188
:10051000848D90E001968F739927848FA689B7897F
:100520002C93A089B1898C91837080648C93938D76
:10053000848D981306C00288F389E02D80818F7D19
:1005400080830895EF92FF920F931F93CF93DF93D1
:10055000EC0181E0888F9B8D8C8D98131AC0E889FF
:10056000F989808185FF15C09FB7F894EE89FF89CE
:100570006083E889F98980818370806480839FBF6C
:1005800081E090E0DF91CF911F910F91FF90EF906C
:100590000895F62E0B8D10E00F5F1F4F0F7311277C
:1005A000E02E8C8D8E110CC00FB607FCFACFE889B7
:1005B000F989808185FFF5CFCE010E948002F1CFBD
:1005C000EB8DEC0FFD2FF11DE35AFF4FF0829FB72B
:1005D000F8940B8FEA89FB8980818062CFCFCF931B
:1005E000DF93EC01888D8823B9F0AA89BB89E8895B
:1005F000F9898C9185FD03C0808186FD0DC00FB601
:1006000007FCF7CF8C9185FFF2CF808185FFEDCF7E
:10061000CE010E948002E9CFDF91CF91089580E062
:1006200090E0892B29F00E94760281110E9400003F
:1006300080E090E0892B49F080E090E0892B29F060
:100640000E94000081110E94000080E090E0892B50
:1006500049F080E090E0892B29F00E940000811190
:100660000E94000080E090E0892B49F080E090E05B
:10067000892B29F00E94000081110C94000008953C
:10068000CF92DF92EF92FF92CF939AEC980F86333E
:1006900008F0892FC82FC8708770482F406428E061
:1006A00030E060E070E0CB01EBE1F3E050917B00E3
:1006B000577F5C2B50937B0040937C0050917A00D5
:1006C000506450937A0050917A0056FDFCCFC09050
:1006D0007800D09079000D2C000CEE08FF086C0D0E
:1006E0007D1D8E1D9F1DDF011197F1F721503109EE
:1006F000E9F628E030E040E050E00E948606C901BB
:10070000CF91FF90EF90DF90CF900895FC01019082
:100710000020E9F73197AF01481B590BBC0189EA6A
:1007200092E00C940C02CF93DF930E948603EC01BD
:100730008EE292E00E9486038C0F9D1FDF91CF9185
:1007400008950F931F93CF93DF93C0E2D2E000E8A8
:1007500012E089910E944003F801819391938F01E7
:10076000F2E0CE32DF07A9F781E392E0DF91CF918B
:100770001F910F910C9493031F920F920FB60F923B
:1007800011242F933F938F939F93AF93BF938091A7
:10079000A1029091A202A091A302B091A402309173
:1007A000A00223E0230F2D3758F50196A11DB11D9E
:1007B0002093A0028093A1029093A202A093A3028F
:1007C000B093A4028091A5029091A602A091A702E5
:1007D000B091A8020196A11DB11D8093A50290932E
:1007E000A602A093A702B093A802BF91AF919F91D8
:1007F0008F913F912F910F900FBE0F901F901895E2
:1008000026E8230F0296A11DB11DD2CF1F920F9291
:100810000FB60F9211240BB60F922F933F934F9365
:100820005F936F937F938F939F93AF93BF93EF9358
:10083000FF9389EA92E00E948002FF91EF91BF91BD
:10084000AF919F918F917F916F915F914F913F9168
:100850002F910F900BBE0F900FBE0F901F90189509
:100860001F920F920FB60F9211240BB60F922F9377
:100870008F939F93EF93FF93E091B902F091BA02A7
:100880008081E091BF02F091C00282FD1DC0908185
:100890008091C2028F5F8F732091C302821741F053
:1008A000E091C202F0E0E755FD4F958F8093C202C0
:1008B000FF91EF919F918F912F910F900BBE0F9011
:1008C0000FBE0F901F9018958081F2CFCF93DF93CA
:1008D000CDB7DEB7A5970FB6F894DEBF0FBECDBF7C
:1008E000789484B5826084BD84B5816084BD85B50B
:1008F000826085BD85B5816085BD80916E00816017
:1009000080936E00109281008091810082608093BC
:1009100081008091810081608093810080918000BE
:100920008160809380008091B10084608093B100E9
:100930008091B00081608093B000809191008260CE
:1009400080939100809191008160809391008091CB
:1009500090008160809390008091A10082608093DC
:10096000A1008091A10081608093A1008091A000EE
:1009700081608093A0008091210182608093210199
:10098000809121018160809321018091200181600B
:100990008093200180917A00846080937A00809116
:1009A0007A00826080937A0080917A0081608093DF
:1009B0007A0080917A00806880937A001092C1005A
:1009C000E091B902F091BA0282E08083E091B50231
:1009D000F091B6021082E091B702F091B80280E186
:1009E00080831092C102E091BD02F091BE0286E0C8
:1009F0008083E091BB02F091BC02808180618083A2
:100A0000E091BB02F091BC02808188608083E0911C
:100A1000BB02F091BC02808180688083E091BB02C0
:100A2000F091BC0280818F7D808362E7E62E62E0D8
:100A3000F62E02E112E0F80181918F01282F30E0BB
:100A4000F901EE53FE4F949124583E4FF901249141
:100A5000222399F030E0220F331FF901E85BFE4FAB
:100A6000A591B491F901EE59FE4F259134912FB71C
:100A7000F894EC919E2B9C932FBF61E00E945B0148
:100A8000F70111927F01F2E000321F07A1F60E94E8
:100A9000E7014B015C0144EFC42EDD24D394E12C2B
:100AA000F12C0E94E701681979098A099B09683EBF
:100AB000734081059105A8F321E0C21AD108E1082D
:100AC000F10888EE880E83E0981EA11CB11CC114A9
:100AD000D104E104F10429F70E94A1032FB7F8948F
:100AE0008091A1029091A202A091A302B091A402D0
:100AF0002FBF80939C0290939D02A0939E02B0937F
:100B00009F0285E592E00E9493032FB7F8948091AD
:100B1000A1029091A202A091A302B091A4022FBFC2
:100B200040919C0250919D0260919E0270919F02A3
:100B3000841B950BA60BB70B80369A4EA105B10509
:100B4000A8F00E94A1032FB7F8948091A102909180
:100B5000A202A091A302B091A4022FBF80939C0295
:100B600090939D02A0939E02B0939F0280E292E038
:100B70009BA38AA3E0E8F2E0FDA3ECA392E1892E17
:100B800092E0992E22E7222E22E0322EC12CD12C87
:100B90007601C394EAA1FBA18191FBA3EAA30E9481
:100BA0004003ECA1FDA121913191FDA3ECA38C01A7
:100BB000021B130B17FF03C011950195110981E06A
:100BC000003111050CF480E0F10191911F018917AA
:100BD000B9F13197808361E0003111050CF060E0DC
:100BE000F40180810E945B0189E692E00E94860305
:100BF00019A2260137015E01F1E2AF0EB11CC3015B
:100C0000B2012AE030E040E050E00E946406605DFE
:100C1000F50162935F01FAE04F165104610471041B
:100C200008F5A114B10419F0C5010E94860382E4FD
:100C300092E00031110514F48DE492E00E949303D8
:100C40002FEFC21AD20AE20AF20A8FEF881A980A24
:100C50009FE0C916D104E104F10409F09BCF0E9482
:100C60000F0353CF412C512C32014394C8CFE9EAF2
:100C7000F2E01382128288EE93E0A0E0B0E0848379
:100C80009583A683B78384E092E09183808385EC8B
:100C900090E09587848784EC90E09787868780EC46
:100CA00090E0918B808B81EC90E0938B828B82EC37
:100CB00090E0958B848B86EC90E0978B868B118EE1
:100CC000128E138E148E0895A1E21A2EAA1BBB1B3E
:100CD000FD010DC0AA1FBB1FEE1FFF1FA217B30708
:100CE000E407F50720F0A21BB30BE40BF50B661F1E
:100CF000771F881F991F1A9469F7609570958095E2
:100D000090959B01AC01BD01CF010895052E97FB85
:100D10001EF400940E949D0657FD07D00E946406B1
:100D200007FC03D04EF40C949D06509540953095E9
:100D300021953F4F4F4F5F4F089590958095709547
:100D400061957F4F8F4F9F4F0895EE0FFF1F881FB4
:0E0D50008BBF0790F691E02D1994F894FFCF19
:100D5E0000000000A2020C023902EF026A024802F1
:100D6E005C023432302E2C2A28262422201E1C1AF5
:100D7E00363738393A3B3C3D3E3F404142430D0AFF
:100D8E000043616C6962726174696F6E20646F6E8C
:100D9E0065003A204F43435550494544003A20637D
:100DAE006C65617200547261696E4465746563743A
:100DBE006F722072656164790053656374696F6E3A
:020DCE00200003
:00000001FF
